S01000004D6F68616D6D65642E73726563EC
S11300000C942A000C943F000C943F000C943F0085
S11300100C943F000C943F000C943F000C943F0060
S11300200C943F000C943F000C943F000C943F0050
S11300300C943F000C943F000C943F000C943F0040
S11300400C943F000C943F000C943F000C943F0030
S11300500C943F0011241FBECFE5D8E0DEBFCDBF16
S113006010E0A0E6B0E0E6E2F5E002C005900D92F3
S1130070A039B107D9F70E94B6000C9491020C94F0
S1130080000080E00E94900081E00E94900082E0E5
S11300900E94900083E00C94900080E00E94A300F2
S11300A081E00E94A30082E00E94A30083E00C94FC
S11300B0A30080E00E94900082E00E94900081E012
S11300C00E94A30083E00C94A30080E00E94A3009C
S11300D082E00E94A30081E00E94900083E00C94DF
S11300E0900080E00E947D0081E00E947D0082E01B
S11300F00E947D0083E00C947D00CF93DF9324E085
S1130100829FC0011124EC01C05ADF4F60E0888156
S11301100E94E00160E08981DF91CF910C94E001BD
S1130120CF93DF9324E0829FC0011124EC01C05AD5
S1130130DF4F61E088810E94E00160E08981DF9106
S1130140CF910C94E001CF93DF9324E0829FC00110
S11301501124EC01C05ADF4F60E088810E94E00165
S113016061E08981DF91CF910C94E0010E947E02CD
S113017088E10E946102811108C00E94410088E167
S11301800E9461028823D9F3F3CF89E10E946102BE
S1130190811108C00E944D0089E10E9461028823F8
S11301A0D9F3E6CF8AE10E946102811108C00E945E
S11301B065008AE10E9461028823D9F3D9CF8BE1DB
S11301C00E946102811108C00E9459008BE10E94C3
S11301D061028823D9F3CCCF0E947100C9CF982F34
S11301E09695969596958770613009F44DC020F0E8
S11301F0623009F496C008959130B1F028F092303D
S113020019F1933089F108954AB321E030E0B9013E
S113021002C0660F771F8A95E2F7CB01942F982BC3
S11302209ABB9BB3809547C047B321E030E0B90146
S113023002C0660F771F8A95E2F7CB01942F982BA3
S113024097BB98B3809549C044B321E030E0B9012D
S113025002C0660F771F8A95E2F7CB01942F982B83
S113026094BB95B380954AC041B321E030E0B90115
S113027002C0660F771F8A95E2F7CB01942F982B63
S113028091BB92B380954BC09130C1F028F092306D
S113029031F19330A9F108954AB321E030E0B90176
S11302A002C0660F771F8A95E2F7CB018095942FE1
S11302B098239ABB9BB389238BBB089547B321E052
S11302C030E0B90102C0660F771F8A95E2F7CB01CF
S11302D08095942F982397BB98B389234BC044B33C
S11302E021E030E0B90102C0660F771F8A95E2F77A
S11302F0CB018095942F982394BB95B389234CC04C
S113030041B321E030E0B90102C0660F771F8A953E
S1130310E2F7CB018095942F982391BB92B3892364
S11303204DC09130B9F028F0923031F19330B1F1F1
S113033008954AB321E030E0B90102C0660F771F87
S11303408A95E2F7CB01962F909594239ABB9BB3A1
S1130350892BB2CF47B321E030E0B90102C0660F68
S1130360771F8A95E2F7CB01962F9095942397BB3C
S113037098B3892B88BB089544B321E030E0B901D8
S113038002C0660F771F8A95E2F7CB01962F9095EE
S1130390942394BB95B3892B85BB089541B321E085
S11303A030E0B90102C0660F771F8A95E2F7CB01EE
S11303B0962F9095942391BB92B3892B82BB089579
S11303C0982F96959695969587706130C1F59130E2
S11303D091F028F09230D9F0933029F108954BB37D
S11303E021E030E0B90102C0660F771F8A95E2F779
S11303F0CB01842B3AC048B321E030E0B90102C0FC
S1130400660F771F8A95E2F7CB01842B3CC045B376
S113041021E030E0B90102C0660F771F8A95E2F748
S1130420CB01842B3EC042B321E030E0B90102C0CD
S1130430660F771F8A95E2F7CB01842B40C06111C8
S11304403FC09130A1F028F09230F9F0933059F187
S113045008954BB321E030E0B90102C0660F771F65
S11304608A95E2F7CB01809584238BBB089548B32A
S113047021E030E0B90102C0660F771F8A95E2F7E8
S1130480CB018095842388BB089545B321E030E0F7
S1130490B90102C0660F771F8A95E2F7CB018095F8
S11304A0842385BB089542B321E030E0B90102C042
S11304B0660F771F8A95E2F7CB018095842382BB70
S11304C00895282F2770869586958695813049F062
S11304D030F0823041F0833079F480B305C089B3C1
S11304E003C086B301C083B390E002C0959587959D
S11304F02A95E2F78170089580E008950F931F9381
S1130500CF9300E710E0C0E0F80161918F018C2FD8
S11305100E94EF00CF5FC032B9F7CF911F910F91C6
S10905200895F894FFCFDA
S11305261011000012130000141500001617000025
S113053601000000000000010100000000000000AE
S11305460000000000000000020202020200000097
S9030000FC
